{
  "_format": "hh-sol-artifact-1",
  "contractName": "Marketplace",
  "sourceName": "contracts/Marketplace.sol",
  "abi": [
    {
      "inputs": [
        {
          "internalType": "uint256",
          "name": "_feePercent",
          "type": "uint256"
        }
      ],
      "stateMutability": "nonpayable",
      "type": "constructor"
    },
    {
      "anonymous": false,
      "inputs": [
        {
          "indexed": false,
          "internalType": "uint256",
          "name": "itemId",
          "type": "uint256"
        },
        {
          "indexed": true,
          "internalType": "address",
          "name": "nft",
          "type": "address"
        },
        {
          "indexed": false,
          "internalType": "uint256",
          "name": "tokenId",
          "type": "uint256"
        },
        {
          "indexed": false,
          "internalType": "uint256",
          "name": "price",
          "type": "uint256"
        },
        {
          "indexed": true,
          "internalType": "address",
          "name": "seller",
          "type": "address"
        },
        {
          "indexed": true,
          "internalType": "address",
          "name": "buyer",
          "type": "address"
        }
      ],
      "name": "Bought",
      "type": "event"
    },
    {
      "anonymous": false,
      "inputs": [
        {
          "indexed": false,
          "internalType": "uint256",
          "name": "itemId",
          "type": "uint256"
        },
        {
          "indexed": true,
          "internalType": "address",
          "name": "nft",
          "type": "address"
        },
        {
          "indexed": false,
          "internalType": "uint256",
          "name": "tokenId",
          "type": "uint256"
        },
        {
          "indexed": false,
          "internalType": "uint256",
          "name": "price",
          "type": "uint256"
        },
        {
          "indexed": true,
          "internalType": "address",
          "name": "seller",
          "type": "address"
        }
      ],
      "name": "Offered",
      "type": "event"
    },
    {
      "inputs": [],
      "name": "feeAccount",
      "outputs": [
        {
          "internalType": "address payable",
          "name": "",
          "type": "address"
        }
      ],
      "stateMutability": "view",
      "type": "function"
    },
    {
      "inputs": [],
      "name": "feePercent",
      "outputs": [
        {
          "internalType": "uint256",
          "name": "",
          "type": "uint256"
        }
      ],
      "stateMutability": "view",
      "type": "function"
    },
    {
      "inputs": [
        {
          "internalType": "uint256",
          "name": "_itemId",
          "type": "uint256"
        }
      ],
      "name": "getTotalPrice",
      "outputs": [
        {
          "internalType": "uint256",
          "name": "",
          "type": "uint256"
        }
      ],
      "stateMutability": "view",
      "type": "function"
    },
    {
      "inputs": [],
      "name": "itemCount",
      "outputs": [
        {
          "internalType": "uint256",
          "name": "",
          "type": "uint256"
        }
      ],
      "stateMutability": "view",
      "type": "function"
    },
    {
      "inputs": [
        {
          "internalType": "uint256",
          "name": "",
          "type": "uint256"
        }
      ],
      "name": "items",
      "outputs": [
        {
          "internalType": "uint256",
          "name": "itemId",
          "type": "uint256"
        },
        {
          "internalType": "contract IERC721",
          "name": "nft",
          "type": "address"
        },
        {
          "internalType": "uint256",
          "name": "tokenId",
          "type": "uint256"
        },
        {
          "internalType": "uint256",
          "name": "price",
          "type": "uint256"
        },
        {
          "internalType": "address payable",
          "name": "seller",
          "type": "address"
        },
        {
          "internalType": "bool",
          "name": "sold",
          "type": "bool"
        }
      ],
      "stateMutability": "view",
      "type": "function"
    },
    {
      "inputs": [
        {
          "internalType": "contract IERC721",
          "name": "_nft",
          "type": "address"
        },
        {
          "internalType": "uint256",
          "name": "_tokenId",
          "type": "uint256"
        },
        {
          "internalType": "uint256",
          "name": "_price",
          "type": "uint256"
        }
      ],
      "name": "makeItem",
      "outputs": [],
      "stateMutability": "nonpayable",
      "type": "function"
    },
    {
      "inputs": [
        {
          "internalType": "uint256",
          "name": "_itemId",
          "type": "uint256"
        }
      ],
      "name": "purchaseItem",
      "outputs": [],
      "stateMutability": "payable",
      "type": "function"
    },
    {
      "inputs": [
        {
          "internalType": "uint256",
          "name": "_tokenId",
          "type": "uint256"
        },
        {
          "internalType": "uint256",
          "name": "_price",
          "type": "uint256"
        }
      ],
      "name": "sellItem",
      "outputs": [],
      "stateMutability": "nonpayable",
      "type": "function"
    }
  ],
  "bytecode": "0x60c06040523480156200001157600080fd5b50604051620015903803806200159083398181016040528101906200003791906200009c565b60016000819055503373ffffffffffffffffffffffffffffffffffffffff1660808173ffffffffffffffffffffffffffffffffffffffff1660601b815250508060a0818152505050620000ec565b6000815190506200009681620000d2565b92915050565b600060208284031215620000af57600080fd5b6000620000bf8482850162000085565b91505092915050565b6000819050919050565b620000dd81620000c8565b8114620000e957600080fd5b50565b60805160601c60a05161146d620001236000396000818161058e015261063f0152600081816105640152610865015261146d6000f3fe60806040526004361061007b5760003560e01c8063bfb231d21161004e578063bfb231d21461012a578063ca7dd3751461016c578063d38ea5bf146101a9578063fa00afc7146101c55761007b565b80632d9235611461008057806365e17c9d146100a95780636bfb0d01146100d45780637fd6f15c146100ff575b600080fd5b34801561008c57600080fd5b506100a760048036038101906100a29190610dde565b6101ee565b005b3480156100b557600080fd5b506100be610562565b6040516100cb9190610f14565b60405180910390f35b3480156100e057600080fd5b506100e9610586565b6040516100f69190611006565b60405180910390f35b34801561010b57600080fd5b5061011461058c565b6040516101219190611006565b60405180910390f35b34801561013657600080fd5b50610151600480360381019061014c9190610db5565b6105b0565b60405161016396959493929190611021565b60405180910390f35b34801561017857600080fd5b50610193600480360381019061018e9190610db5565b610639565b6040516101a09190611006565b60405180910390f35b6101c360048036038101906101be9190610db5565b61069c565b005b3480156101d157600080fd5b506101ec60048036038101906101e79190610d66565b610a6a565b005b60026000541415610234576040517f08c379a000000000000000000000000000000000000000000000000000000000815260040161022b90610fe6565b60405180910390fd5b60026000819055506000811161027f576040517f08c379a000000000000000000000000000000000000000000000000000000000815260040161027690610f86565b60405180910390fd5b600060026000848152602001908152602001600020905060008160040160146101000a81548160ff021916908315150217905550818160030181905550338160040160006101000a81548173ffffffffffffffffffffffffffffffffffffffff021916908373ffffffffffffffffffffffffffffffffffffffff1602179055508060010160009054906101000a900473ffffffffffffffffffffffffffffffffffffffff1673ffffffffffffffffffffffffffffffffffffffff166323b872dd333084600201546040518463ffffffff1660e01b815260040161036493929190610f2f565b600060405180830381600087803b15801561037e57600080fd5b505af1158015610392573d6000803e3d6000fd5b505050508060026000858152602001908152602001600020600082015481600001556001820160009054906101000a900473ffffffffffffffffffffffffffffffffffffffff168160010160006101000a81548173ffffffffffffffffffffffffffffffffffffffff021916908373ffffffffffffffffffffffffffffffffffffffff16021790555060028201548160020155600382015481600301556004820160009054906101000a900473ffffffffffffffffffffffffffffffffffffffff168160040160006101000a81548173ffffffffffffffffffffffffffffffffffffffff021916908373ffffffffffffffffffffffffffffffffffffffff1602179055506004820160149054906101000a900460ff168160040160146101000a81548160ff0219169083151502179055509050503373ffffffffffffffffffffffffffffffffffffffff168160010160009054906101000a900473ffffffffffffffffffffffffffffffffffffffff1673ffffffffffffffffffffffffffffffffffffffff167f655a0cf9c8db81512be9a76dc1c5ae5380b8816ce6ad659cd61b715e2999d59a600154868660405161054d93929190611082565b60405180910390a35060016000819055505050565b7f000000000000000000000000000000000000000000000000000000000000000081565b60015481565b7f000000000000000000000000000000000000000000000000000000000000000081565b60026020528060005260406000206000915090508060000154908060010160009054906101000a900473ffffffffffffffffffffffffffffffffffffffff16908060020154908060030154908060040160009054906101000a900473ffffffffffffffffffffffffffffffffffffffff16908060040160149054906101000a900460ff16905086565b600060647f0000000000000000000000000000000000000000000000000000000000000000606461066a91906110ca565b600260008581526020019081526020016000206003015461068b9190611151565b6106959190611120565b9050919050565b600260005414156106e2576040517f08c379a00000000000000000000000000000000000000000000000000000000081526004016106d990610fe6565b60405180910390fd5b600260008190555060006106f582610639565b9050600060026000848152602001908152602001600020905060008311801561072057506001548311155b61075f576040517f08c379a000000000000000000000000000000000000000000000000000000000815260040161075690610fc6565b60405180910390fd5b813410156107a2576040517f08c379a000000000000000000000000000000000000000000000000000000000815260040161079990610fa6565b60405180910390fd5b8060040160149054906101000a900460ff16156107f4576040517f08c379a00000000000000000000000000000000000000000000000000000000081526004016107eb90610f66565b60405180910390fd5b8060040160009054906101000a900473ffffffffffffffffffffffffffffffffffffffff1673ffffffffffffffffffffffffffffffffffffffff166108fc82600301549081150290604051600060405180830381858888f19350505050158015610862573d6000803e3d6000fd5b507f000000000000000000000000000000000000000000000000000000000000000073ffffffffffffffffffffffffffffffffffffffff166108fc8260030154846108ad91906111ab565b9081150290604051600060405180830381858888f193505050501580156108d8573d6000803e3d6000fd5b5060018160040160146101000a81548160ff0219169083151502179055508060010160009054906101000a900473ffffffffffffffffffffffffffffffffffffffff1673ffffffffffffffffffffffffffffffffffffffff166323b872dd303384600201546040518463ffffffff1660e01b815260040161095b93929190610f2f565b600060405180830381600087803b15801561097557600080fd5b505af1158015610989573d6000803e3d6000fd5b505050503373ffffffffffffffffffffffffffffffffffffffff168160040160009054906101000a900473ffffffffffffffffffffffffffffffffffffffff1673ffffffffffffffffffffffffffffffffffffffff168260010160009054906101000a900473ffffffffffffffffffffffffffffffffffffffff1673ffffffffffffffffffffffffffffffffffffffff167f8b4c9c8a607d67b321582dd8461041b1dc2ceeca70c8b7f37f8e02095cf2e76d8685600201548660030154604051610a5593929190611082565b60405180910390a45050600160008190555050565b60026000541415610ab0576040517f08c379a0000000000000000000000000000000000000000000000000000000008152600401610aa790610fe6565b60405180910390fd5b600260008190555060008111610afb576040517f08c379a0000000000000000000000000000000000000000000000000000000008152600401610af290610f86565b60405180910390fd5b60016000815480929190610b0e9061126f565b91905055508273ffffffffffffffffffffffffffffffffffffffff166323b872dd3330856040518463ffffffff1660e01b8152600401610b5093929190610f2f565b600060405180830381600087803b158015610b6a57600080fd5b505af1158015610b7e573d6000803e3d6000fd5b505050506040518060c0016040528060015481526020018473ffffffffffffffffffffffffffffffffffffffff1681526020018381526020018281526020013373ffffffffffffffffffffffffffffffffffffffff168152602001600015158152506002600060015481526020019081526020016000206000820151816000015560208201518160010160006101000a81548173ffffffffffffffffffffffffffffffffffffffff021916908373ffffffffffffffffffffffffffffffffffffffff160217905550604082015181600201556060820151816003015560808201518160040160006101000a81548173ffffffffffffffffffffffffffffffffffffffff021916908373ffffffffffffffffffffffffffffffffffffffff16021790555060a08201518160040160146101000a81548160ff0219169083151502179055509050503373ffffffffffffffffffffffffffffffffffffffff168373ffffffffffffffffffffffffffffffffffffffff167f655a0cf9c8db81512be9a76dc1c5ae5380b8816ce6ad659cd61b715e2999d59a6001548585604051610d2793929190611082565b60405180910390a36001600081905550505050565b600081359050610d4b81611409565b92915050565b600081359050610d6081611420565b92915050565b600080600060608486031215610d7b57600080fd5b6000610d8986828701610d3c565b9350506020610d9a86828701610d51565b9250506040610dab86828701610d51565b9150509250925092565b600060208284031215610dc757600080fd5b6000610dd584828501610d51565b91505092915050565b60008060408385031215610df157600080fd5b6000610dff85828601610d51565b9250506020610e1085828601610d51565b9150509250929050565b610e23816111f1565b82525050565b610e32816111df565b82525050565b610e4181611203565b82525050565b610e508161124b565b82525050565b6000610e636011836110b9565b9150610e6e82611316565b602082019050919050565b6000610e86601f836110b9565b9150610e918261133f565b602082019050919050565b6000610ea96033836110b9565b9150610eb482611368565b604082019050919050565b6000610ecc6012836110b9565b9150610ed7826113b7565b602082019050919050565b6000610eef601f836110b9565b9150610efa826113e0565b602082019050919050565b610f0e81611241565b82525050565b6000602082019050610f296000830184610e1a565b92915050565b6000606082019050610f446000830186610e29565b610f516020830185610e29565b610f5e6040830184610f05565b949350505050565b60006020820190508181036000830152610f7f81610e56565b9050919050565b60006020820190508181036000830152610f9f81610e79565b9050919050565b60006020820190508181036000830152610fbf81610e9c565b9050919050565b60006020820190508181036000830152610fdf81610ebf565b9050919050565b60006020820190508181036000830152610fff81610ee2565b9050919050565b600060208201905061101b6000830184610f05565b92915050565b600060c0820190506110366000830189610f05565b6110436020830188610e47565b6110506040830187610f05565b61105d6060830186610f05565b61106a6080830185610e1a565b61107760a0830184610e38565b979650505050505050565b60006060820190506110976000830186610f05565b6110a46020830185610f05565b6110b16040830184610f05565b949350505050565b600082825260208201905092915050565b60006110d582611241565b91506110e083611241565b9250827fffffffffffffffffffffffffffffffffffffffffffffffffffffffffffffffff03821115611115576111146112b8565b5b828201905092915050565b600061112b82611241565b915061113683611241565b925082611146576111456112e7565b5b828204905092915050565b600061115c82611241565b915061116783611241565b9250817fffffffffffffffffffffffffffffffffffffffffffffffffffffffffffffffff04831182151516156111a05761119f6112b8565b5b828202905092915050565b60006111b682611241565b91506111c183611241565b9250828210156111d4576111d36112b8565b5b828203905092915050565b60006111ea82611221565b9050919050565b60006111fc82611221565b9050919050565b60008115159050919050565b600061121a826111df565b9050919050565b600073ffffffffffffffffffffffffffffffffffffffff82169050919050565b6000819050919050565b60006112568261125d565b9050919050565b600061126882611221565b9050919050565b600061127a82611241565b91507fffffffffffffffffffffffffffffffffffffffffffffffffffffffffffffffff8214156112ad576112ac6112b8565b5b600182019050919050565b7f4e487b7100000000000000000000000000000000000000000000000000000000600052601160045260246000fd5b7f4e487b7100000000000000000000000000000000000000000000000000000000600052601260045260246000fd5b7f6974656d20616c726561647920736f6c64000000000000000000000000000000600082015250565b7f5072696365206d7573742062652067726561746572207468616e207a65726f00600082015250565b7f6e6f7420656e6f75676820657468657220746f20636f766572206974656d207060008201527f7269636520616e64206d61726b65742066656500000000000000000000000000602082015250565b7f6974656d20646f65736e27742065786973740000000000000000000000000000600082015250565b7f5265656e7472616e637947756172643a207265656e7472616e742063616c6c00600082015250565b6114128161120f565b811461141d57600080fd5b50565b61142981611241565b811461143457600080fd5b5056fea26469706673582212200dee97f74c077dddf7222062fba098f3bed204873442db4c0ecae4a872998dde64736f6c63430008040033",
  "linkReferences": {},
  "deployedLinkReferences": {}
}