{
  "_format": "hh-sol-artifact-1",
  "contractName": "Marketplace",
  "sourceName": "contracts/Marketplace.sol",
  "abi": [
    {
      "inputs": [
        {
          "internalType": "uint256",
          "name": "_feePercent",
          "type": "uint256"
        }
      ],
      "stateMutability": "nonpayable",
      "type": "constructor"
    },
    {
      "anonymous": false,
      "inputs": [
        {
          "indexed": false,
          "internalType": "uint256",
          "name": "itemId",
          "type": "uint256"
        },
        {
          "indexed": true,
          "internalType": "address",
          "name": "nft",
          "type": "address"
        },
        {
          "indexed": false,
          "internalType": "uint256",
          "name": "tokenId",
          "type": "uint256"
        },
        {
          "indexed": false,
          "internalType": "uint256",
          "name": "price",
          "type": "uint256"
        },
        {
          "indexed": true,
          "internalType": "address",
          "name": "seller",
          "type": "address"
        },
        {
          "indexed": true,
          "internalType": "address",
          "name": "buyer",
          "type": "address"
        }
      ],
      "name": "Bought",
      "type": "event"
    },
    {
      "anonymous": false,
      "inputs": [
        {
          "indexed": false,
          "internalType": "uint256",
          "name": "itemId",
          "type": "uint256"
        },
        {
          "indexed": true,
          "internalType": "address",
          "name": "nft",
          "type": "address"
        },
        {
          "indexed": false,
          "internalType": "uint256",
          "name": "tokenId",
          "type": "uint256"
        },
        {
          "indexed": false,
          "internalType": "uint256",
          "name": "price",
          "type": "uint256"
        },
        {
          "indexed": true,
          "internalType": "address",
          "name": "seller",
          "type": "address"
        }
      ],
      "name": "Offered",
      "type": "event"
    },
    {
      "anonymous": false,
      "inputs": [
        {
          "indexed": false,
          "internalType": "uint256",
          "name": "itemId",
          "type": "uint256"
        },
        {
          "indexed": true,
          "internalType": "address",
          "name": "nft",
          "type": "address"
        },
        {
          "indexed": false,
          "internalType": "uint256",
          "name": "tokenId",
          "type": "uint256"
        },
        {
          "indexed": false,
          "internalType": "uint256",
          "name": "price",
          "type": "uint256"
        },
        {
          "indexed": true,
          "internalType": "address",
          "name": "buyer",
          "type": "address"
        },
        {
          "indexed": true,
          "internalType": "address",
          "name": "seller",
          "type": "address"
        }
      ],
      "name": "Sold",
      "type": "event"
    },
    {
      "inputs": [],
      "name": "feeAccount",
      "outputs": [
        {
          "internalType": "address payable",
          "name": "",
          "type": "address"
        }
      ],
      "stateMutability": "view",
      "type": "function"
    },
    {
      "inputs": [],
      "name": "feePercent",
      "outputs": [
        {
          "internalType": "uint256",
          "name": "",
          "type": "uint256"
        }
      ],
      "stateMutability": "view",
      "type": "function"
    },
    {
      "inputs": [],
      "name": "fetchMyNfts",
      "outputs": [
        {
          "components": [
            {
              "internalType": "uint256",
              "name": "itemId",
              "type": "uint256"
            },
            {
              "internalType": "contract IERC721",
              "name": "nft",
              "type": "address"
            },
            {
              "internalType": "uint256",
              "name": "tokenId",
              "type": "uint256"
            },
            {
              "internalType": "uint256",
              "name": "price",
              "type": "uint256"
            },
            {
              "internalType": "address",
              "name": "holder",
              "type": "address"
            },
            {
              "internalType": "address payable",
              "name": "seller",
              "type": "address"
            },
            {
              "internalType": "bool",
              "name": "sold",
              "type": "bool"
            }
          ],
          "internalType": "struct Marketplace.Item[]",
          "name": "",
          "type": "tuple[]"
        }
      ],
      "stateMutability": "view",
      "type": "function"
    },
    {
      "inputs": [
        {
          "internalType": "uint256",
          "name": "_itemId",
          "type": "uint256"
        }
      ],
      "name": "getTotalPrice",
      "outputs": [
        {
          "internalType": "uint256",
          "name": "",
          "type": "uint256"
        }
      ],
      "stateMutability": "view",
      "type": "function"
    },
    {
      "inputs": [],
      "name": "itemCount",
      "outputs": [
        {
          "internalType": "uint256",
          "name": "",
          "type": "uint256"
        }
      ],
      "stateMutability": "view",
      "type": "function"
    },
    {
      "inputs": [
        {
          "internalType": "uint256",
          "name": "",
          "type": "uint256"
        }
      ],
      "name": "items",
      "outputs": [
        {
          "internalType": "uint256",
          "name": "itemId",
          "type": "uint256"
        },
        {
          "internalType": "contract IERC721",
          "name": "nft",
          "type": "address"
        },
        {
          "internalType": "uint256",
          "name": "tokenId",
          "type": "uint256"
        },
        {
          "internalType": "uint256",
          "name": "price",
          "type": "uint256"
        },
        {
          "internalType": "address",
          "name": "holder",
          "type": "address"
        },
        {
          "internalType": "address payable",
          "name": "seller",
          "type": "address"
        },
        {
          "internalType": "bool",
          "name": "sold",
          "type": "bool"
        }
      ],
      "stateMutability": "view",
      "type": "function"
    },
    {
      "inputs": [
        {
          "internalType": "contract IERC721",
          "name": "_nft",
          "type": "address"
        },
        {
          "internalType": "uint256",
          "name": "_tokenId",
          "type": "uint256"
        },
        {
          "internalType": "uint256",
          "name": "_price",
          "type": "uint256"
        }
      ],
      "name": "makeItem",
      "outputs": [],
      "stateMutability": "nonpayable",
      "type": "function"
    },
    {
      "inputs": [
        {
          "internalType": "uint256",
          "name": "_itemId",
          "type": "uint256"
        }
      ],
      "name": "purchaseItem",
      "outputs": [],
      "stateMutability": "payable",
      "type": "function"
    },
    {
      "inputs": [
        {
          "internalType": "uint256",
          "name": "_itemId",
          "type": "uint256"
        },
        {
          "internalType": "uint256",
          "name": "_price",
          "type": "uint256"
        }
      ],
      "name": "sellItem",
      "outputs": [],
      "stateMutability": "nonpayable",
      "type": "function"
    }
  ],
  "bytecode": "0x60c06040523480156200001157600080fd5b5060405162001e9638038062001e9683398181016040528101906200003791906200009c565b60016000819055503373ffffffffffffffffffffffffffffffffffffffff1660808173ffffffffffffffffffffffffffffffffffffffff1660601b815250508060a0818152505050620000ec565b6000815190506200009681620000d2565b92915050565b600060208284031215620000af57600080fd5b6000620000bf8482850162000085565b91505092915050565b6000819050919050565b620000dd81620000c8565b8114620000e957600080fd5b50565b60805160601c60a051611d7362000123600039600081816109f80152610acf0152600081816109ce0152610cf50152611d736000f3fe6080604052600436106100865760003560e01c80637fd6f15c116100595780637fd6f15c14610135578063bfb231d214610160578063ca7dd375146101a3578063d38ea5bf146101e0578063fa00afc7146101fc57610086565b8063128ae7121461008b5780632d923561146100b657806365e17c9d146100df5780636bfb0d011461010a575b600080fd5b34801561009757600080fd5b506100a0610225565b6040516100ad9190611803565b60405180910390f35b3480156100c257600080fd5b506100dd60048036038101906100d8919061152c565b6105ae565b005b3480156100eb57600080fd5b506100f46109cc565b60405161010191906117b1565b60405180910390f35b34801561011657600080fd5b5061011f6109f0565b60405161012c91906118c5565b60405180910390f35b34801561014157600080fd5b5061014a6109f6565b60405161015791906118c5565b60405180910390f35b34801561016c57600080fd5b5061018760048036038101906101829190611503565b610a1a565b60405161019a97969594939291906118e0565b60405180910390f35b3480156101af57600080fd5b506101ca60048036038101906101c59190611503565b610ac9565b6040516101d791906118c5565b60405180910390f35b6101fa60048036038101906101f59190611503565b610b2c565b005b34801561020857600080fd5b50610223600480360381019061021e91906114b4565b6110d4565b005b6060600060015490506000806000600190505b8381116102cb573373ffffffffffffffffffffffffffffffffffffffff166002600083815260200190815260200160002060040160009054906101000a900473ffffffffffffffffffffffffffffffffffffffff1673ffffffffffffffffffffffffffffffffffffffff1614156102b85782806102b490611b75565b9350505b80806102c390611b75565b915050610238565b5060008267ffffffffffffffff81111561030e577f4e487b7100000000000000000000000000000000000000000000000000000000600052604160045260246000fd5b60405190808252806020026020018201604052801561034757816020015b610334611409565b81526020019060019003908161032c5790505b5090506000600190505b8481116105a3573373ffffffffffffffffffffffffffffffffffffffff166002600083815260200190815260200160002060040160009054906101000a900473ffffffffffffffffffffffffffffffffffffffff1673ffffffffffffffffffffffffffffffffffffffff161415610590576000600260008381526020019081526020016000206000015490506000600260008381526020019081526020016000206040518060e0016040529081600082015481526020016001820160009054906101000a900473ffffffffffffffffffffffffffffffffffffffff1673ffffffffffffffffffffffffffffffffffffffff1673ffffffffffffffffffffffffffffffffffffffff16815260200160028201548152602001600382015481526020016004820160009054906101000a900473ffffffffffffffffffffffffffffffffffffffff1673ffffffffffffffffffffffffffffffffffffffff1673ffffffffffffffffffffffffffffffffffffffff1681526020016005820160009054906101000a900473ffffffffffffffffffffffffffffffffffffffff1673ffffffffffffffffffffffffffffffffffffffff1673ffffffffffffffffffffffffffffffffffffffff1681526020016005820160149054906101000a900460ff161515151581525050905080848681518110610574577f4e487b7100000000000000000000000000000000000000000000000000000000600052603260045260246000fd5b6020026020010181905250848061058a90611b75565b95505050505b808061059b90611b75565b915050610351565b508094505050505090565b600260005414156105f4576040517f08c379a00000000000000000000000000000000000000000000000000000000081526004016105eb906118a5565b60405180910390fd5b60026000819055506000811161063f576040517f08c379a000000000000000000000000000000000000000000000000000000000815260040161063690611845565b60405180910390fd5b600060026000848152602001908152602001600020905060008160050160146101000a81548160ff021916908315150217905550818160030181905550338160050160006101000a81548173ffffffffffffffffffffffffffffffffffffffff021916908373ffffffffffffffffffffffffffffffffffffffff160217905550308160040160006101000a81548173ffffffffffffffffffffffffffffffffffffffff021916908373ffffffffffffffffffffffffffffffffffffffff1602179055508060010160009054906101000a900473ffffffffffffffffffffffffffffffffffffffff1673ffffffffffffffffffffffffffffffffffffffff166323b872dd333084600201546040518463ffffffff1660e01b8152600401610767939291906117cc565b600060405180830381600087803b15801561078157600080fd5b505af1158015610795573d6000803e3d6000fd5b505050508060026000858152602001908152602001600020600082015481600001556001820160009054906101000a900473ffffffffffffffffffffffffffffffffffffffff168160010160006101000a81548173ffffffffffffffffffffffffffffffffffffffff021916908373ffffffffffffffffffffffffffffffffffffffff16021790555060028201548160020155600382015481600301556004820160009054906101000a900473ffffffffffffffffffffffffffffffffffffffff168160040160006101000a81548173ffffffffffffffffffffffffffffffffffffffff021916908373ffffffffffffffffffffffffffffffffffffffff1602179055506005820160009054906101000a900473ffffffffffffffffffffffffffffffffffffffff168160050160006101000a81548173ffffffffffffffffffffffffffffffffffffffff021916908373ffffffffffffffffffffffffffffffffffffffff1602179055506005820160149054906101000a900460ff168160050160146101000a81548160ff0219169083151502179055509050503373ffffffffffffffffffffffffffffffffffffffff168160010160009054906101000a900473ffffffffffffffffffffffffffffffffffffffff1673ffffffffffffffffffffffffffffffffffffffff167f655a0cf9c8db81512be9a76dc1c5ae5380b8816ce6ad659cd61b715e2999d59a60015486866040516109b79392919061194f565b60405180910390a35060016000819055505050565b7f000000000000000000000000000000000000000000000000000000000000000081565b60015481565b7f000000000000000000000000000000000000000000000000000000000000000081565b60026020528060005260406000206000915090508060000154908060010160009054906101000a900473ffffffffffffffffffffffffffffffffffffffff16908060020154908060030154908060040160009054906101000a900473ffffffffffffffffffffffffffffffffffffffff16908060050160009054906101000a900473ffffffffffffffffffffffffffffffffffffffff16908060050160149054906101000a900460ff16905087565b600060647f00000000000000000000000000000000000000000000000000000000000000006064610afa91906119d0565b6002600085815260200190815260200160002060030154610b1b9190611a57565b610b259190611a26565b9050919050565b60026000541415610b72576040517f08c379a0000000000000000000000000000000000000000000000000000000008152600401610b69906118a5565b60405180910390fd5b60026000819055506000610b8582610ac9565b90506000600260008481526020019081526020016000209050600083118015610bb057506001548311155b610bef576040517f08c379a0000000000000000000000000000000000000000000000000000000008152600401610be690611885565b60405180910390fd5b81341015610c32576040517f08c379a0000000000000000000000000000000000000000000000000000000008152600401610c2990611865565b60405180910390fd5b8060050160149054906101000a900460ff1615610c84576040517f08c379a0000000000000000000000000000000000000000000000000000000008152600401610c7b90611825565b60405180910390fd5b8060050160009054906101000a900473ffffffffffffffffffffffffffffffffffffffff1673ffffffffffffffffffffffffffffffffffffffff166108fc82600301549081150290604051600060405180830381858888f19350505050158015610cf2573d6000803e3d6000fd5b507f000000000000000000000000000000000000000000000000000000000000000073ffffffffffffffffffffffffffffffffffffffff166108fc826003015484610d3d9190611ab1565b9081150290604051600060405180830381858888f19350505050158015610d68573d6000803e3d6000fd5b5060018160050160146101000a81548160ff021916908315150217905550338160040160006101000a81548173ffffffffffffffffffffffffffffffffffffffff021916908373ffffffffffffffffffffffffffffffffffffffff1602179055508060010160009054906101000a900473ffffffffffffffffffffffffffffffffffffffff1673ffffffffffffffffffffffffffffffffffffffff166323b872dd303384600201546040518463ffffffff1660e01b8152600401610e2e939291906117cc565b600060405180830381600087803b158015610e4857600080fd5b505af1158015610e5c573d6000803e3d6000fd5b505050508060026000858152602001908152602001600020600082015481600001556001820160009054906101000a900473ffffffffffffffffffffffffffffffffffffffff168160010160006101000a81548173ffffffffffffffffffffffffffffffffffffffff021916908373ffffffffffffffffffffffffffffffffffffffff16021790555060028201548160020155600382015481600301556004820160009054906101000a900473ffffffffffffffffffffffffffffffffffffffff168160040160006101000a81548173ffffffffffffffffffffffffffffffffffffffff021916908373ffffffffffffffffffffffffffffffffffffffff1602179055506005820160009054906101000a900473ffffffffffffffffffffffffffffffffffffffff168160050160006101000a81548173ffffffffffffffffffffffffffffffffffffffff021916908373ffffffffffffffffffffffffffffffffffffffff1602179055506005820160149054906101000a900460ff168160050160146101000a81548160ff0219169083151502179055509050503373ffffffffffffffffffffffffffffffffffffffff168160050160009054906101000a900473ffffffffffffffffffffffffffffffffffffffff1673ffffffffffffffffffffffffffffffffffffffff168260010160009054906101000a900473ffffffffffffffffffffffffffffffffffffffff1673ffffffffffffffffffffffffffffffffffffffff167f8b4c9c8a607d67b321582dd8461041b1dc2ceeca70c8b7f37f8e02095cf2e76d86856002015486600301546040516110bf9392919061194f565b60405180910390a45050600160008190555050565b6002600054141561111a576040517f08c379a0000000000000000000000000000000000000000000000000000000008152600401611111906118a5565b60405180910390fd5b600260008190555060008111611165576040517f08c379a000000000000000000000000000000000000000000000000000000000815260040161115c90611845565b60405180910390fd5b6001600081548092919061117890611b75565b91905055508273ffffffffffffffffffffffffffffffffffffffff166323b872dd3330856040518463ffffffff1660e01b81526004016111ba939291906117cc565b600060405180830381600087803b1580156111d457600080fd5b505af11580156111e8573d6000803e3d6000fd5b505050506040518060e0016040528060015481526020018473ffffffffffffffffffffffffffffffffffffffff1681526020018381526020018281526020013073ffffffffffffffffffffffffffffffffffffffff1681526020013373ffffffffffffffffffffffffffffffffffffffff168152602001600015158152506002600060015481526020019081526020016000206000820151816000015560208201518160010160006101000a81548173ffffffffffffffffffffffffffffffffffffffff021916908373ffffffffffffffffffffffffffffffffffffffff160217905550604082015181600201556060820151816003015560808201518160040160006101000a81548173ffffffffffffffffffffffffffffffffffffffff021916908373ffffffffffffffffffffffffffffffffffffffff16021790555060a08201518160050160006101000a81548173ffffffffffffffffffffffffffffffffffffffff021916908373ffffffffffffffffffffffffffffffffffffffff16021790555060c08201518160050160146101000a81548160ff0219169083151502179055509050503373ffffffffffffffffffffffffffffffffffffffff168373ffffffffffffffffffffffffffffffffffffffff167f655a0cf9c8db81512be9a76dc1c5ae5380b8816ce6ad659cd61b715e2999d59a60015485856040516113f49392919061194f565b60405180910390a36001600081905550505050565b6040518060e0016040528060008152602001600073ffffffffffffffffffffffffffffffffffffffff1681526020016000815260200160008152602001600073ffffffffffffffffffffffffffffffffffffffff168152602001600073ffffffffffffffffffffffffffffffffffffffff1681526020016000151581525090565b60008135905061149981611d0f565b92915050565b6000813590506114ae81611d26565b92915050565b6000806000606084860312156114c957600080fd5b60006114d78682870161148a565b93505060206114e88682870161149f565b92505060406114f98682870161149f565b9150509250925092565b60006020828403121561151557600080fd5b60006115238482850161149f565b91505092915050565b6000806040838503121561153f57600080fd5b600061154d8582860161149f565b925050602061155e8582860161149f565b9150509250929050565b60006115748383611705565b60e08301905092915050565b61158981611af7565b82525050565b61159881611af7565b82525050565b6115a781611ae5565b82525050565b6115b681611ae5565b82525050565b60006115c782611996565b6115d181856119ae565b93506115dc83611986565b8060005b8381101561160d5781516115f48882611568565b97506115ff836119a1565b9250506001810190506115e0565b5085935050505092915050565b61162381611b09565b82525050565b61163281611b09565b82525050565b61164181611b51565b82525050565b61165081611b51565b82525050565b60006116636011836119bf565b915061166e82611c1c565b602082019050919050565b6000611686601f836119bf565b915061169182611c45565b602082019050919050565b60006116a96033836119bf565b91506116b482611c6e565b604082019050919050565b60006116cc6012836119bf565b91506116d782611cbd565b602082019050919050565b60006116ef601f836119bf565b91506116fa82611ce6565b602082019050919050565b60e08201600082015161171b6000850182611793565b50602082015161172e6020850182611638565b5060408201516117416040850182611793565b5060608201516117546060850182611793565b506080820151611767608085018261159e565b5060a082015161177a60a0850182611580565b5060c082015161178d60c085018261161a565b50505050565b61179c81611b47565b82525050565b6117ab81611b47565b82525050565b60006020820190506117c6600083018461158f565b92915050565b60006060820190506117e160008301866115ad565b6117ee60208301856115ad565b6117fb60408301846117a2565b949350505050565b6000602082019050818103600083015261181d81846115bc565b905092915050565b6000602082019050818103600083015261183e81611656565b9050919050565b6000602082019050818103600083015261185e81611679565b9050919050565b6000602082019050818103600083015261187e8161169c565b9050919050565b6000602082019050818103600083015261189e816116bf565b9050919050565b600060208201905081810360008301526118be816116e2565b9050919050565b60006020820190506118da60008301846117a2565b92915050565b600060e0820190506118f5600083018a6117a2565b6119026020830189611647565b61190f60408301886117a2565b61191c60608301876117a2565b61192960808301866115ad565b61193660a083018561158f565b61194360c0830184611629565b98975050505050505050565b600060608201905061196460008301866117a2565b61197160208301856117a2565b61197e60408301846117a2565b949350505050565b6000819050602082019050919050565b600081519050919050565b6000602082019050919050565b600082825260208201905092915050565b600082825260208201905092915050565b60006119db82611b47565b91506119e683611b47565b9250827fffffffffffffffffffffffffffffffffffffffffffffffffffffffffffffffff03821115611a1b57611a1a611bbe565b5b828201905092915050565b6000611a3182611b47565b9150611a3c83611b47565b925082611a4c57611a4b611bed565b5b828204905092915050565b6000611a6282611b47565b9150611a6d83611b47565b9250817fffffffffffffffffffffffffffffffffffffffffffffffffffffffffffffffff0483118215151615611aa657611aa5611bbe565b5b828202905092915050565b6000611abc82611b47565b9150611ac783611b47565b925082821015611ada57611ad9611bbe565b5b828203905092915050565b6000611af082611b27565b9050919050565b6000611b0282611b27565b9050919050565b60008115159050919050565b6000611b2082611ae5565b9050919050565b600073ffffffffffffffffffffffffffffffffffffffff82169050919050565b6000819050919050565b6000611b5c82611b63565b9050919050565b6000611b6e82611b27565b9050919050565b6000611b8082611b47565b91507fffffffffffffffffffffffffffffffffffffffffffffffffffffffffffffffff821415611bb357611bb2611bbe565b5b600182019050919050565b7f4e487b7100000000000000000000000000000000000000000000000000000000600052601160045260246000fd5b7f4e487b7100000000000000000000000000000000000000000000000000000000600052601260045260246000fd5b7f6974656d20616c726561647920736f6c64000000000000000000000000000000600082015250565b7f5072696365206d7573742062652067726561746572207468616e207a65726f00600082015250565b7f6e6f7420656e6f75676820657468657220746f20636f766572206974656d207060008201527f7269636520616e64206d61726b65742066656500000000000000000000000000602082015250565b7f6974656d20646f65736e27742065786973740000000000000000000000000000600082015250565b7f5265656e7472616e637947756172643a207265656e7472616e742063616c6c00600082015250565b611d1881611b15565b8114611d2357600080fd5b50565b611d2f81611b47565b8114611d3a57600080fd5b5056fea264697066735822122042a2bc4de304cbd2a2922cb44cbaf8098e0de4e43b4bcc6123b7ea59161269c364736f6c63430008040033",
  "linkReferences": {},
  "deployedLinkReferences": {}
}