{
  "_format": "hh-sol-artifact-1",
  "contractName": "Marketplace",
  "sourceName": "contracts/Marketplace.sol",
  "abi": [
    {
      "inputs": [
        {
          "internalType": "uint256",
          "name": "_feePercent",
          "type": "uint256"
        }
      ],
      "stateMutability": "nonpayable",
      "type": "constructor"
    },
    {
      "anonymous": false,
      "inputs": [
        {
          "indexed": false,
          "internalType": "uint256",
          "name": "itemId",
          "type": "uint256"
        },
        {
          "indexed": true,
          "internalType": "address",
          "name": "nft",
          "type": "address"
        },
        {
          "indexed": false,
          "internalType": "uint256",
          "name": "tokenId",
          "type": "uint256"
        },
        {
          "indexed": false,
          "internalType": "uint256",
          "name": "price",
          "type": "uint256"
        },
        {
          "indexed": true,
          "internalType": "address",
          "name": "seller",
          "type": "address"
        },
        {
          "indexed": true,
          "internalType": "address",
          "name": "buyer",
          "type": "address"
        }
      ],
      "name": "Bought",
      "type": "event"
    },
    {
      "anonymous": false,
      "inputs": [
        {
          "indexed": false,
          "internalType": "uint256",
          "name": "itemId",
          "type": "uint256"
        },
        {
          "indexed": true,
          "internalType": "address",
          "name": "nft",
          "type": "address"
        },
        {
          "indexed": false,
          "internalType": "uint256",
          "name": "tokenId",
          "type": "uint256"
        },
        {
          "indexed": false,
          "internalType": "uint256",
          "name": "price",
          "type": "uint256"
        },
        {
          "indexed": true,
          "internalType": "address",
          "name": "seller",
          "type": "address"
        }
      ],
      "name": "Offered",
      "type": "event"
    },
    {
      "anonymous": false,
      "inputs": [
        {
          "indexed": false,
          "internalType": "uint256",
          "name": "itemId",
          "type": "uint256"
        },
        {
          "indexed": true,
          "internalType": "address",
          "name": "nft",
          "type": "address"
        },
        {
          "indexed": false,
          "internalType": "uint256",
          "name": "tokenId",
          "type": "uint256"
        },
        {
          "indexed": false,
          "internalType": "uint256",
          "name": "price",
          "type": "uint256"
        },
        {
          "indexed": true,
          "internalType": "address",
          "name": "buyer",
          "type": "address"
        },
        {
          "indexed": true,
          "internalType": "address",
          "name": "seller",
          "type": "address"
        }
      ],
      "name": "Sold",
      "type": "event"
    },
    {
      "inputs": [],
      "name": "feeAccount",
      "outputs": [
        {
          "internalType": "address payable",
          "name": "",
          "type": "address"
        }
      ],
      "stateMutability": "view",
      "type": "function"
    },
    {
      "inputs": [],
      "name": "feePercent",
      "outputs": [
        {
          "internalType": "uint256",
          "name": "",
          "type": "uint256"
        }
      ],
      "stateMutability": "view",
      "type": "function"
    },
    {
      "inputs": [],
      "name": "fetchMyNfts",
      "outputs": [
        {
          "components": [
            {
              "internalType": "uint256",
              "name": "itemId",
              "type": "uint256"
            },
            {
              "internalType": "contract IERC721",
              "name": "nft",
              "type": "address"
            },
            {
              "internalType": "uint256",
              "name": "tokenId",
              "type": "uint256"
            },
            {
              "internalType": "uint256",
              "name": "price",
              "type": "uint256"
            },
            {
              "internalType": "address",
              "name": "holder",
              "type": "address"
            },
            {
              "internalType": "address payable",
              "name": "seller",
              "type": "address"
            },
            {
              "internalType": "bool",
              "name": "sold",
              "type": "bool"
            }
          ],
          "internalType": "struct Marketplace.Item[]",
          "name": "",
          "type": "tuple[]"
        }
      ],
      "stateMutability": "view",
      "type": "function"
    },
    {
      "inputs": [
        {
          "internalType": "uint256",
          "name": "_itemId",
          "type": "uint256"
        }
      ],
      "name": "getTotalPrice",
      "outputs": [
        {
          "internalType": "uint256",
          "name": "",
          "type": "uint256"
        }
      ],
      "stateMutability": "view",
      "type": "function"
    },
    {
      "inputs": [],
      "name": "itemCount",
      "outputs": [
        {
          "internalType": "uint256",
          "name": "",
          "type": "uint256"
        }
      ],
      "stateMutability": "view",
      "type": "function"
    },
    {
      "inputs": [
        {
          "internalType": "uint256",
          "name": "",
          "type": "uint256"
        }
      ],
      "name": "items",
      "outputs": [
        {
          "internalType": "uint256",
          "name": "itemId",
          "type": "uint256"
        },
        {
          "internalType": "contract IERC721",
          "name": "nft",
          "type": "address"
        },
        {
          "internalType": "uint256",
          "name": "tokenId",
          "type": "uint256"
        },
        {
          "internalType": "uint256",
          "name": "price",
          "type": "uint256"
        },
        {
          "internalType": "address",
          "name": "holder",
          "type": "address"
        },
        {
          "internalType": "address payable",
          "name": "seller",
          "type": "address"
        },
        {
          "internalType": "bool",
          "name": "sold",
          "type": "bool"
        }
      ],
      "stateMutability": "view",
      "type": "function"
    },
    {
      "inputs": [
        {
          "internalType": "contract IERC721",
          "name": "_nft",
          "type": "address"
        },
        {
          "internalType": "uint256",
          "name": "_tokenId",
          "type": "uint256"
        },
        {
          "internalType": "uint256",
          "name": "_price",
          "type": "uint256"
        }
      ],
      "name": "makeItem",
      "outputs": [],
      "stateMutability": "nonpayable",
      "type": "function"
    },
    {
      "inputs": [
        {
          "internalType": "uint256",
          "name": "_itemId",
          "type": "uint256"
        }
      ],
      "name": "purchaseItem",
      "outputs": [],
      "stateMutability": "payable",
      "type": "function"
    },
    {
      "inputs": [
        {
          "internalType": "contract IERC721",
          "name": "_nft",
          "type": "address"
        },
        {
          "internalType": "uint256",
          "name": "_tokenId",
          "type": "uint256"
        }
      ],
      "name": "randomMint",
      "outputs": [],
      "stateMutability": "payable",
      "type": "function"
    },
    {
      "inputs": [
        {
          "internalType": "uint256",
          "name": "_itemId",
          "type": "uint256"
        },
        {
          "internalType": "uint256",
          "name": "_price",
          "type": "uint256"
        }
      ],
      "name": "sellItem",
      "outputs": [],
      "stateMutability": "nonpayable",
      "type": "function"
    }
  ],
  "bytecode": "0x60c06040523480156200001157600080fd5b50604051620022653803806200226583398181016040528101906200003791906200009c565b60016000819055503373ffffffffffffffffffffffffffffffffffffffff1660808173ffffffffffffffffffffffffffffffffffffffff1660601b815250508060a0818152505050620000ec565b6000815190506200009681620000d2565b92915050565b600060208284031215620000af57600080fd5b6000620000bf8482850162000085565b91505092915050565b6000819050919050565b620000dd81620000c8565b8114620000e957600080fd5b50565b60805160601c60a0516121426200012360003960008181610a1f0152610af60152600081816109f50152610d1c01526121426000f3fe6080604052600436106100915760003560e01c8063bfb231d211610059578063bfb231d21461016b578063ca7dd375146101ae578063d38ea5bf146101eb578063d869d3e514610207578063fa00afc71461022357610091565b8063128ae712146100965780632d923561146100c157806365e17c9d146100ea5780636bfb0d01146101155780637fd6f15c14610140575b600080fd5b3480156100a257600080fd5b506100ab61024c565b6040516100b89190611b89565b60405180910390f35b3480156100cd57600080fd5b506100e860048036038101906100e3919061188f565b6105d5565b005b3480156100f657600080fd5b506100ff6109f3565b60405161010c9190611b37565b60405180910390f35b34801561012157600080fd5b5061012a610a17565b6040516101379190611c6b565b60405180910390f35b34801561014c57600080fd5b50610155610a1d565b6040516101629190611c6b565b60405180910390f35b34801561017757600080fd5b50610192600480360381019061018d9190611866565b610a41565b6040516101a59796959493929190611c86565b60405180910390f35b3480156101ba57600080fd5b506101d560048036038101906101d09190611866565b610af0565b6040516101e29190611c6b565b60405180910390f35b61020560048036038101906102009190611866565b610b53565b005b610221600480360381019061021c91906117db565b6110fb565b005b34801561022f57600080fd5b5061024a60048036038101906102459190611817565b6113fb565b005b6060600060015490506000806000600190505b8381116102f2573373ffffffffffffffffffffffffffffffffffffffff166002600083815260200190815260200160002060040160009054906101000a900473ffffffffffffffffffffffffffffffffffffffff1673ffffffffffffffffffffffffffffffffffffffff1614156102df5782806102db90611f1b565b9350505b80806102ea90611f1b565b91505061025f565b5060008267ffffffffffffffff811115610335577f4e487b7100000000000000000000000000000000000000000000000000000000600052604160045260246000fd5b60405190808252806020026020018201604052801561036e57816020015b61035b611730565b8152602001906001900390816103535790505b5090506000600190505b8481116105ca573373ffffffffffffffffffffffffffffffffffffffff166002600083815260200190815260200160002060040160009054906101000a900473ffffffffffffffffffffffffffffffffffffffff1673ffffffffffffffffffffffffffffffffffffffff1614156105b7576000600260008381526020019081526020016000206000015490506000600260008381526020019081526020016000206040518060e0016040529081600082015481526020016001820160009054906101000a900473ffffffffffffffffffffffffffffffffffffffff1673ffffffffffffffffffffffffffffffffffffffff1673ffffffffffffffffffffffffffffffffffffffff16815260200160028201548152602001600382015481526020016004820160009054906101000a900473ffffffffffffffffffffffffffffffffffffffff1673ffffffffffffffffffffffffffffffffffffffff1673ffffffffffffffffffffffffffffffffffffffff1681526020016005820160009054906101000a900473ffffffffffffffffffffffffffffffffffffffff1673ffffffffffffffffffffffffffffffffffffffff1673ffffffffffffffffffffffffffffffffffffffff1681526020016005820160149054906101000a900460ff16151515158152505090508084868151811061059b577f4e487b7100000000000000000000000000000000000000000000000000000000600052603260045260246000fd5b602002602001018190525084806105b190611f1b565b95505050505b80806105c290611f1b565b915050610378565b508094505050505090565b6002600054141561061b576040517f08c379a000000000000000000000000000000000000000000000000000000000815260040161061290611c4b565b60405180910390fd5b600260008190555060008111610666576040517f08c379a000000000000000000000000000000000000000000000000000000000815260040161065d90611beb565b60405180910390fd5b600060026000848152602001908152602001600020905060008160050160146101000a81548160ff021916908315150217905550818160030181905550338160050160006101000a81548173ffffffffffffffffffffffffffffffffffffffff021916908373ffffffffffffffffffffffffffffffffffffffff160217905550308160040160006101000a81548173ffffffffffffffffffffffffffffffffffffffff021916908373ffffffffffffffffffffffffffffffffffffffff1602179055508060010160009054906101000a900473ffffffffffffffffffffffffffffffffffffffff1673ffffffffffffffffffffffffffffffffffffffff166323b872dd333084600201546040518463ffffffff1660e01b815260040161078e93929190611b52565b600060405180830381600087803b1580156107a857600080fd5b505af11580156107bc573d6000803e3d6000fd5b505050508060026000858152602001908152602001600020600082015481600001556001820160009054906101000a900473ffffffffffffffffffffffffffffffffffffffff168160010160006101000a81548173ffffffffffffffffffffffffffffffffffffffff021916908373ffffffffffffffffffffffffffffffffffffffff16021790555060028201548160020155600382015481600301556004820160009054906101000a900473ffffffffffffffffffffffffffffffffffffffff168160040160006101000a81548173ffffffffffffffffffffffffffffffffffffffff021916908373ffffffffffffffffffffffffffffffffffffffff1602179055506005820160009054906101000a900473ffffffffffffffffffffffffffffffffffffffff168160050160006101000a81548173ffffffffffffffffffffffffffffffffffffffff021916908373ffffffffffffffffffffffffffffffffffffffff1602179055506005820160149054906101000a900460ff168160050160146101000a81548160ff0219169083151502179055509050503373ffffffffffffffffffffffffffffffffffffffff168160010160009054906101000a900473ffffffffffffffffffffffffffffffffffffffff1673ffffffffffffffffffffffffffffffffffffffff167f655a0cf9c8db81512be9a76dc1c5ae5380b8816ce6ad659cd61b715e2999d59a60015486866040516109de93929190611cf5565b60405180910390a35060016000819055505050565b7f000000000000000000000000000000000000000000000000000000000000000081565b60015481565b7f000000000000000000000000000000000000000000000000000000000000000081565b60026020528060005260406000206000915090508060000154908060010160009054906101000a900473ffffffffffffffffffffffffffffffffffffffff16908060020154908060030154908060040160009054906101000a900473ffffffffffffffffffffffffffffffffffffffff16908060050160009054906101000a900473ffffffffffffffffffffffffffffffffffffffff16908060050160149054906101000a900460ff16905087565b600060647f00000000000000000000000000000000000000000000000000000000000000006064610b219190611d76565b6002600085815260200190815260200160002060030154610b429190611dfd565b610b4c9190611dcc565b9050919050565b60026000541415610b99576040517f08c379a0000000000000000000000000000000000000000000000000000000008152600401610b9090611c4b565b60405180910390fd5b60026000819055506000610bac82610af0565b90506000600260008481526020019081526020016000209050600083118015610bd757506001548311155b610c16576040517f08c379a0000000000000000000000000000000000000000000000000000000008152600401610c0d90611c2b565b60405180910390fd5b81341015610c59576040517f08c379a0000000000000000000000000000000000000000000000000000000008152600401610c5090611c0b565b60405180910390fd5b8060050160149054906101000a900460ff1615610cab576040517f08c379a0000000000000000000000000000000000000000000000000000000008152600401610ca290611bab565b60405180910390fd5b8060050160009054906101000a900473ffffffffffffffffffffffffffffffffffffffff1673ffffffffffffffffffffffffffffffffffffffff166108fc82600301549081150290604051600060405180830381858888f19350505050158015610d19573d6000803e3d6000fd5b507f000000000000000000000000000000000000000000000000000000000000000073ffffffffffffffffffffffffffffffffffffffff166108fc826003015484610d649190611e57565b9081150290604051600060405180830381858888f19350505050158015610d8f573d6000803e3d6000fd5b5060018160050160146101000a81548160ff021916908315150217905550338160040160006101000a81548173ffffffffffffffffffffffffffffffffffffffff021916908373ffffffffffffffffffffffffffffffffffffffff1602179055508060010160009054906101000a900473ffffffffffffffffffffffffffffffffffffffff1673ffffffffffffffffffffffffffffffffffffffff166323b872dd303384600201546040518463ffffffff1660e01b8152600401610e5593929190611b52565b600060405180830381600087803b158015610e6f57600080fd5b505af1158015610e83573d6000803e3d6000fd5b505050508060026000858152602001908152602001600020600082015481600001556001820160009054906101000a900473ffffffffffffffffffffffffffffffffffffffff168160010160006101000a81548173ffffffffffffffffffffffffffffffffffffffff021916908373ffffffffffffffffffffffffffffffffffffffff16021790555060028201548160020155600382015481600301556004820160009054906101000a900473ffffffffffffffffffffffffffffffffffffffff168160040160006101000a81548173ffffffffffffffffffffffffffffffffffffffff021916908373ffffffffffffffffffffffffffffffffffffffff1602179055506005820160009054906101000a900473ffffffffffffffffffffffffffffffffffffffff168160050160006101000a81548173ffffffffffffffffffffffffffffffffffffffff021916908373ffffffffffffffffffffffffffffffffffffffff1602179055506005820160149054906101000a900460ff168160050160146101000a81548160ff0219169083151502179055509050503373ffffffffffffffffffffffffffffffffffffffff168160050160009054906101000a900473ffffffffffffffffffffffffffffffffffffffff1673ffffffffffffffffffffffffffffffffffffffff168260010160009054906101000a900473ffffffffffffffffffffffffffffffffffffffff1673ffffffffffffffffffffffffffffffffffffffff167f8b4c9c8a607d67b321582dd8461041b1dc2ceeca70c8b7f37f8e02095cf2e76d86856002015486600301546040516110e693929190611cf5565b60405180910390a45050600160008190555050565b60026000541415611141576040517f08c379a000000000000000000000000000000000000000000000000000000000815260040161113890611c4b565b60405180910390fd5b60026000819055506000670429d069189e0000905080341015611199576040517f08c379a000000000000000000000000000000000000000000000000000000000815260040161119090611bcb565b60405180910390fd5b600160008154809291906111ac90611f1b565b919050555060006040518060e0016040528060015481526020018573ffffffffffffffffffffffffffffffffffffffff1681526020018481526020018381526020013373ffffffffffffffffffffffffffffffffffffffff1681526020013373ffffffffffffffffffffffffffffffffffffffff168152602001600115158152509050806002600060015481526020019081526020016000206000820151816000015560208201518160010160006101000a81548173ffffffffffffffffffffffffffffffffffffffff021916908373ffffffffffffffffffffffffffffffffffffffff160217905550604082015181600201556060820151816003015560808201518160040160006101000a81548173ffffffffffffffffffffffffffffffffffffffff021916908373ffffffffffffffffffffffffffffffffffffffff16021790555060a08201518160050160006101000a81548173ffffffffffffffffffffffffffffffffffffffff021916908373ffffffffffffffffffffffffffffffffffffffff16021790555060c08201518160050160146101000a81548160ff0219169083151502179055509050503373ffffffffffffffffffffffffffffffffffffffff168160a0015173ffffffffffffffffffffffffffffffffffffffff16826020015173ffffffffffffffffffffffffffffffffffffffff167f8b4c9c8a607d67b321582dd8461041b1dc2ceeca70c8b7f37f8e02095cf2e76d600154856040015186606001516040516113e593929190611cf5565b60405180910390a4505060016000819055505050565b60026000541415611441576040517f08c379a000000000000000000000000000000000000000000000000000000000815260040161143890611c4b565b60405180910390fd5b60026000819055506000811161148c576040517f08c379a000000000000000000000000000000000000000000000000000000000815260040161148390611beb565b60405180910390fd5b6001600081548092919061149f90611f1b565b91905055508273ffffffffffffffffffffffffffffffffffffffff166323b872dd3330856040518463ffffffff1660e01b81526004016114e193929190611b52565b600060405180830381600087803b1580156114fb57600080fd5b505af115801561150f573d6000803e3d6000fd5b505050506040518060e0016040528060015481526020018473ffffffffffffffffffffffffffffffffffffffff1681526020018381526020018281526020013073ffffffffffffffffffffffffffffffffffffffff1681526020013373ffffffffffffffffffffffffffffffffffffffff168152602001600015158152506002600060015481526020019081526020016000206000820151816000015560208201518160010160006101000a81548173ffffffffffffffffffffffffffffffffffffffff021916908373ffffffffffffffffffffffffffffffffffffffff160217905550604082015181600201556060820151816003015560808201518160040160006101000a81548173ffffffffffffffffffffffffffffffffffffffff021916908373ffffffffffffffffffffffffffffffffffffffff16021790555060a08201518160050160006101000a81548173ffffffffffffffffffffffffffffffffffffffff021916908373ffffffffffffffffffffffffffffffffffffffff16021790555060c08201518160050160146101000a81548160ff0219169083151502179055509050503373ffffffffffffffffffffffffffffffffffffffff168373ffffffffffffffffffffffffffffffffffffffff167f655a0cf9c8db81512be9a76dc1c5ae5380b8816ce6ad659cd61b715e2999d59a600154858560405161171b93929190611cf5565b60405180910390a36001600081905550505050565b6040518060e0016040528060008152602001600073ffffffffffffffffffffffffffffffffffffffff1681526020016000815260200160008152602001600073ffffffffffffffffffffffffffffffffffffffff168152602001600073ffffffffffffffffffffffffffffffffffffffff1681526020016000151581525090565b6000813590506117c0816120de565b92915050565b6000813590506117d5816120f5565b92915050565b600080604083850312156117ee57600080fd5b60006117fc858286016117b1565b925050602061180d858286016117c6565b9150509250929050565b60008060006060848603121561182c57600080fd5b600061183a868287016117b1565b935050602061184b868287016117c6565b925050604061185c868287016117c6565b9150509250925092565b60006020828403121561187857600080fd5b6000611886848285016117c6565b91505092915050565b600080604083850312156118a257600080fd5b60006118b0858286016117c6565b92505060206118c1858286016117c6565b9150509250929050565b60006118d78383611a8b565b60e08301905092915050565b6118ec81611e9d565b82525050565b6118fb81611e9d565b82525050565b61190a81611e8b565b82525050565b61191981611e8b565b82525050565b600061192a82611d3c565b6119348185611d54565b935061193f83611d2c565b8060005b8381101561197057815161195788826118cb565b975061196283611d47565b925050600181019050611943565b5085935050505092915050565b61198681611eaf565b82525050565b61199581611eaf565b82525050565b6119a481611ef7565b82525050565b6119b381611ef7565b82525050565b60006119c6601183611d65565b91506119d182611fc2565b602082019050919050565b60006119e9601b83611d65565b91506119f482611feb565b602082019050919050565b6000611a0c601f83611d65565b9150611a1782612014565b602082019050919050565b6000611a2f603383611d65565b9150611a3a8261203d565b604082019050919050565b6000611a52601283611d65565b9150611a5d8261208c565b602082019050919050565b6000611a75601f83611d65565b9150611a80826120b5565b602082019050919050565b60e082016000820151611aa16000850182611b19565b506020820151611ab4602085018261199b565b506040820151611ac76040850182611b19565b506060820151611ada6060850182611b19565b506080820151611aed6080850182611901565b5060a0820151611b0060a08501826118e3565b5060c0820151611b1360c085018261197d565b50505050565b611b2281611eed565b82525050565b611b3181611eed565b82525050565b6000602082019050611b4c60008301846118f2565b92915050565b6000606082019050611b676000830186611910565b611b746020830185611910565b611b816040830184611b28565b949350505050565b60006020820190508181036000830152611ba3818461191f565b905092915050565b60006020820190508181036000830152611bc4816119b9565b9050919050565b60006020820190508181036000830152611be4816119dc565b9050919050565b60006020820190508181036000830152611c04816119ff565b9050919050565b60006020820190508181036000830152611c2481611a22565b9050919050565b60006020820190508181036000830152611c4481611a45565b9050919050565b60006020820190508181036000830152611c6481611a68565b9050919050565b6000602082019050611c806000830184611b28565b92915050565b600060e082019050611c9b600083018a611b28565b611ca860208301896119aa565b611cb56040830188611b28565b611cc26060830187611b28565b611ccf6080830186611910565b611cdc60a08301856118f2565b611ce960c083018461198c565b98975050505050505050565b6000606082019050611d0a6000830186611b28565b611d176020830185611b28565b611d246040830184611b28565b949350505050565b6000819050602082019050919050565b600081519050919050565b6000602082019050919050565b600082825260208201905092915050565b600082825260208201905092915050565b6000611d8182611eed565b9150611d8c83611eed565b9250827fffffffffffffffffffffffffffffffffffffffffffffffffffffffffffffffff03821115611dc157611dc0611f64565b5b828201905092915050565b6000611dd782611eed565b9150611de283611eed565b925082611df257611df1611f93565b5b828204905092915050565b6000611e0882611eed565b9150611e1383611eed565b9250817fffffffffffffffffffffffffffffffffffffffffffffffffffffffffffffffff0483118215151615611e4c57611e4b611f64565b5b828202905092915050565b6000611e6282611eed565b9150611e6d83611eed565b925082821015611e8057611e7f611f64565b5b828203905092915050565b6000611e9682611ecd565b9050919050565b6000611ea882611ecd565b9050919050565b60008115159050919050565b6000611ec682611e8b565b9050919050565b600073ffffffffffffffffffffffffffffffffffffffff82169050919050565b6000819050919050565b6000611f0282611f09565b9050919050565b6000611f1482611ecd565b9050919050565b6000611f2682611eed565b91507fffffffffffffffffffffffffffffffffffffffffffffffffffffffffffffffff821415611f5957611f58611f64565b5b600182019050919050565b7f4e487b7100000000000000000000000000000000000000000000000000000000600052601160045260246000fd5b7f4e487b7100000000000000000000000000000000000000000000000000000000600052601260045260246000fd5b7f6974656d20616c726561647920736f6c64000000000000000000000000000000600082015250565b7f6e6f7420656e6f75676820657468657220746f20627579206e66740000000000600082015250565b7f5072696365206d7573742062652067726561746572207468616e207a65726f00600082015250565b7f6e6f7420656e6f75676820657468657220746f20636f766572206974656d207060008201527f7269636520616e64206d61726b65742066656500000000000000000000000000602082015250565b7f6974656d20646f65736e27742065786973740000000000000000000000000000600082015250565b7f5265656e7472616e637947756172643a207265656e7472616e742063616c6c00600082015250565b6120e781611ebb565b81146120f257600080fd5b50565b6120fe81611eed565b811461210957600080fd5b5056fea2646970667358221220d258a3e4b80b7c399b335a17eb11f56c5614e285a6a3ff76e992ee815913b1db64736f6c63430008040033",
  "linkReferences": {},
  "deployedLinkReferences": {}
}