{
  "_format": "hh-sol-artifact-1",
  "contractName": "Marketplace",
  "sourceName": "contracts/Marketplace.sol",
  "abi": [
    {
      "inputs": [
        {
          "internalType": "uint256",
          "name": "_feePercent",
          "type": "uint256"
        }
      ],
      "stateMutability": "nonpayable",
      "type": "constructor"
    },
    {
      "anonymous": false,
      "inputs": [
        {
          "indexed": false,
          "internalType": "uint256",
          "name": "itemId",
          "type": "uint256"
        },
        {
          "indexed": true,
          "internalType": "address",
          "name": "nft",
          "type": "address"
        },
        {
          "indexed": false,
          "internalType": "uint256",
          "name": "tokenId",
          "type": "uint256"
        },
        {
          "indexed": false,
          "internalType": "uint256",
          "name": "price",
          "type": "uint256"
        },
        {
          "indexed": true,
          "internalType": "address",
          "name": "seller",
          "type": "address"
        },
        {
          "indexed": true,
          "internalType": "address",
          "name": "buyer",
          "type": "address"
        }
      ],
      "name": "Bought",
      "type": "event"
    },
    {
      "anonymous": false,
      "inputs": [
        {
          "indexed": false,
          "internalType": "uint256",
          "name": "itemId",
          "type": "uint256"
        },
        {
          "indexed": true,
          "internalType": "address",
          "name": "nft",
          "type": "address"
        },
        {
          "indexed": false,
          "internalType": "uint256",
          "name": "tokenId",
          "type": "uint256"
        },
        {
          "indexed": false,
          "internalType": "uint256",
          "name": "price",
          "type": "uint256"
        },
        {
          "indexed": true,
          "internalType": "address",
          "name": "seller",
          "type": "address"
        }
      ],
      "name": "Offered",
      "type": "event"
    },
    {
      "inputs": [],
      "name": "feeAccount",
      "outputs": [
        {
          "internalType": "address payable",
          "name": "",
          "type": "address"
        }
      ],
      "stateMutability": "view",
      "type": "function"
    },
    {
      "inputs": [],
      "name": "feePercent",
      "outputs": [
        {
          "internalType": "uint256",
          "name": "",
          "type": "uint256"
        }
      ],
      "stateMutability": "view",
      "type": "function"
    },
    {
      "inputs": [
        {
          "internalType": "uint256",
          "name": "_itemId",
          "type": "uint256"
        }
      ],
      "name": "getTotalPrice",
      "outputs": [
        {
          "internalType": "uint256",
          "name": "",
          "type": "uint256"
        }
      ],
      "stateMutability": "view",
      "type": "function"
    },
    {
      "inputs": [],
      "name": "itemCount",
      "outputs": [
        {
          "internalType": "uint256",
          "name": "",
          "type": "uint256"
        }
      ],
      "stateMutability": "view",
      "type": "function"
    },
    {
      "inputs": [
        {
          "internalType": "uint256",
          "name": "",
          "type": "uint256"
        }
      ],
      "name": "items",
      "outputs": [
        {
          "internalType": "uint256",
          "name": "itemId",
          "type": "uint256"
        },
        {
          "internalType": "contract IERC721",
          "name": "nft",
          "type": "address"
        },
        {
          "internalType": "uint256",
          "name": "tokenId",
          "type": "uint256"
        },
        {
          "internalType": "uint256",
          "name": "price",
          "type": "uint256"
        },
        {
          "internalType": "address payable",
          "name": "seller",
          "type": "address"
        },
        {
          "internalType": "bool",
          "name": "sold",
          "type": "bool"
        }
      ],
      "stateMutability": "view",
      "type": "function"
    },
    {
      "inputs": [
        {
          "internalType": "contract IERC721",
          "name": "_nft",
          "type": "address"
        },
        {
          "internalType": "uint256",
          "name": "_tokenId",
          "type": "uint256"
        },
        {
          "internalType": "uint256",
          "name": "_price",
          "type": "uint256"
        }
      ],
      "name": "makeItem",
      "outputs": [],
      "stateMutability": "nonpayable",
      "type": "function"
    },
    {
      "inputs": [
        {
          "internalType": "uint256",
          "name": "_itemId",
          "type": "uint256"
        }
      ],
      "name": "purchaseItem",
      "outputs": [],
      "stateMutability": "payable",
      "type": "function"
    },
    {
      "inputs": [
        {
          "internalType": "uint256",
          "name": "_tokenId",
          "type": "uint256"
        },
        {
          "internalType": "uint256",
          "name": "_price",
          "type": "uint256"
        }
      ],
      "name": "sellItem",
      "outputs": [],
      "stateMutability": "nonpayable",
      "type": "function"
    }
  ],
  "bytecode": "0x60c06040523480156200001157600080fd5b50604051620017783803806200177883398181016040528101906200003791906200009c565b60016000819055503373ffffffffffffffffffffffffffffffffffffffff1660808173ffffffffffffffffffffffffffffffffffffffff1660601b815250508060a0818152505050620000ec565b6000815190506200009681620000d2565b92915050565b600060208284031215620000af57600080fd5b6000620000bf8482850162000085565b91505092915050565b6000819050919050565b620000dd81620000c8565b8114620000e957600080fd5b50565b60805160601c60a051611655620001236000396000818161058e015261063f015260008181610564015261086501526116556000f3fe60806040526004361061007b5760003560e01c8063bfb231d21161004e578063bfb231d21461012a578063ca7dd3751461016c578063d38ea5bf146101a9578063fa00afc7146101c55761007b565b80632d9235611461008057806365e17c9d146100a95780636bfb0d01146100d45780637fd6f15c146100ff575b600080fd5b34801561008c57600080fd5b506100a760048036038101906100a29190610f1c565b6101ee565b005b3480156100b557600080fd5b506100be610562565b6040516100cb919061108b565b60405180910390f35b3480156100e057600080fd5b506100e9610586565b6040516100f6919061119f565b60405180910390f35b34801561010b57600080fd5b5061011461058c565b604051610121919061119f565b60405180910390f35b34801561013657600080fd5b50610151600480360381019061014c9190610ef3565b6105b0565b604051610163969594939291906111ba565b60405180910390f35b34801561017857600080fd5b50610193600480360381019061018e9190610ef3565b610639565b6040516101a0919061119f565b60405180910390f35b6101c360048036038101906101be9190610ef3565b61069c565b005b3480156101d157600080fd5b506101ec60048036038101906101e79190610ea4565b610a6a565b005b60026000541415610234576040517f08c379a000000000000000000000000000000000000000000000000000000000815260040161022b9061117f565b60405180910390fd5b60026000819055506000811161027f576040517f08c379a00000000000000000000000000000000000000000000000000000000081526004016102769061111f565b60405180910390fd5b600060026000848152602001908152602001600020905060008160040160146101000a81548160ff021916908315150217905550818160030181905550338160040160006101000a81548173ffffffffffffffffffffffffffffffffffffffff021916908373ffffffffffffffffffffffffffffffffffffffff1602179055508060010160009054906101000a900473ffffffffffffffffffffffffffffffffffffffff1673ffffffffffffffffffffffffffffffffffffffff166323b872dd333084600201546040518463ffffffff1660e01b8152600401610364939291906110a6565b600060405180830381600087803b15801561037e57600080fd5b505af1158015610392573d6000803e3d6000fd5b505050508060026000858152602001908152602001600020600082015481600001556001820160009054906101000a900473ffffffffffffffffffffffffffffffffffffffff168160010160006101000a81548173ffffffffffffffffffffffffffffffffffffffff021916908373ffffffffffffffffffffffffffffffffffffffff16021790555060028201548160020155600382015481600301556004820160009054906101000a900473ffffffffffffffffffffffffffffffffffffffff168160040160006101000a81548173ffffffffffffffffffffffffffffffffffffffff021916908373ffffffffffffffffffffffffffffffffffffffff1602179055506004820160149054906101000a900460ff168160040160146101000a81548160ff0219169083151502179055509050503373ffffffffffffffffffffffffffffffffffffffff168160010160009054906101000a900473ffffffffffffffffffffffffffffffffffffffff1673ffffffffffffffffffffffffffffffffffffffff167f655a0cf9c8db81512be9a76dc1c5ae5380b8816ce6ad659cd61b715e2999d59a600154868660405161054d9392919061121b565b60405180910390a35060016000819055505050565b7f000000000000000000000000000000000000000000000000000000000000000081565b60015481565b7f000000000000000000000000000000000000000000000000000000000000000081565b60026020528060005260406000206000915090508060000154908060010160009054906101000a900473ffffffffffffffffffffffffffffffffffffffff16908060020154908060030154908060040160009054906101000a900473ffffffffffffffffffffffffffffffffffffffff16908060040160149054906101000a900460ff16905086565b600060647f0000000000000000000000000000000000000000000000000000000000000000606461066a919061126e565b600260008581526020019081526020016000206003015461068b91906112f5565b61069591906112c4565b9050919050565b600260005414156106e2576040517f08c379a00000000000000000000000000000000000000000000000000000000081526004016106d99061117f565b60405180910390fd5b600260008190555060006106f582610639565b9050600060026000848152602001908152602001600020905060008311801561072057506001548311155b61075f576040517f08c379a00000000000000000000000000000000000000000000000000000000081526004016107569061115f565b60405180910390fd5b813410156107a2576040517f08c379a00000000000000000000000000000000000000000000000000000000081526004016107999061113f565b60405180910390fd5b8060040160149054906101000a900460ff16156107f4576040517f08c379a00000000000000000000000000000000000000000000000000000000081526004016107eb906110ff565b60405180910390fd5b8060040160009054906101000a900473ffffffffffffffffffffffffffffffffffffffff1673ffffffffffffffffffffffffffffffffffffffff166108fc82600301549081150290604051600060405180830381858888f19350505050158015610862573d6000803e3d6000fd5b507f000000000000000000000000000000000000000000000000000000000000000073ffffffffffffffffffffffffffffffffffffffff166108fc8260030154846108ad919061134f565b9081150290604051600060405180830381858888f193505050501580156108d8573d6000803e3d6000fd5b5060018160040160146101000a81548160ff0219169083151502179055508060010160009054906101000a900473ffffffffffffffffffffffffffffffffffffffff1673ffffffffffffffffffffffffffffffffffffffff166323b872dd303384600201546040518463ffffffff1660e01b815260040161095b939291906110a6565b600060405180830381600087803b15801561097557600080fd5b505af1158015610989573d6000803e3d6000fd5b505050503373ffffffffffffffffffffffffffffffffffffffff168160040160009054906101000a900473ffffffffffffffffffffffffffffffffffffffff1673ffffffffffffffffffffffffffffffffffffffff168260010160009054906101000a900473ffffffffffffffffffffffffffffffffffffffff1673ffffffffffffffffffffffffffffffffffffffff167f8b4c9c8a607d67b321582dd8461041b1dc2ceeca70c8b7f37f8e02095cf2e76d8685600201548660030154604051610a559392919061121b565b60405180910390a45050600160008190555050565b60026000541415610ab0576040517f08c379a0000000000000000000000000000000000000000000000000000000008152600401610aa79061117f565b60405180910390fd5b600260008190555060008111610afb576040517f08c379a0000000000000000000000000000000000000000000000000000000008152600401610af29061111f565b60405180910390fd5b610b396040518060400160405280600e81526020017f5448495320495320574f524b4947000000000000000000000000000000000000815250610db8565b60016000815480929190610b4c90611446565b91905055508273ffffffffffffffffffffffffffffffffffffffff166323b872dd3330856040518463ffffffff1660e01b8152600401610b8e939291906110a6565b600060405180830381600087803b158015610ba857600080fd5b505af1158015610bbc573d6000803e3d6000fd5b50505050610bfe6040518060400160405280601681526020017f474f54204146544552205452414e4645522046524f4d00000000000000000000815250610db8565b6040518060c0016040528060015481526020018473ffffffffffffffffffffffffffffffffffffffff1681526020018381526020018281526020013373ffffffffffffffffffffffffffffffffffffffff168152602001600015158152506002600060015481526020019081526020016000206000820151816000015560208201518160010160006101000a81548173ffffffffffffffffffffffffffffffffffffffff021916908373ffffffffffffffffffffffffffffffffffffffff160217905550604082015181600201556060820151816003015560808201518160040160006101000a81548173ffffffffffffffffffffffffffffffffffffffff021916908373ffffffffffffffffffffffffffffffffffffffff16021790555060a08201518160040160146101000a81548160ff0219169083151502179055509050503373ffffffffffffffffffffffffffffffffffffffff168373ffffffffffffffffffffffffffffffffffffffff167f655a0cf9c8db81512be9a76dc1c5ae5380b8816ce6ad659cd61b715e2999d59a6001548585604051610da39392919061121b565b60405180910390a36001600081905550505050565b610e4e81604051602401610dcc91906110dd565b6040516020818303038152906040527f41304fac000000000000000000000000000000000000000000000000000000007bffffffffffffffffffffffffffffffffffffffffffffffffffffffff19166020820180517bffffffffffffffffffffffffffffffffffffffffffffffffffffffff8381831617835250505050610e51565b50565b60008151905060006a636f6e736f6c652e6c6f679050602083016000808483855afa5050505050565b600081359050610e89816115f1565b92915050565b600081359050610e9e81611608565b92915050565b600080600060608486031215610eb957600080fd5b6000610ec786828701610e7a565b9350506020610ed886828701610e8f565b9250506040610ee986828701610e8f565b9150509250925092565b600060208284031215610f0557600080fd5b6000610f1384828501610e8f565b91505092915050565b60008060408385031215610f2f57600080fd5b6000610f3d85828601610e8f565b9250506020610f4e85828601610e8f565b9150509250929050565b610f6181611395565b82525050565b610f7081611383565b82525050565b610f7f816113a7565b82525050565b610f8e816113ef565b82525050565b6000610f9f82611252565b610fa9818561125d565b9350610fb9818560208601611413565b610fc2816114ed565b840191505092915050565b6000610fda60118361125d565b9150610fe5826114fe565b602082019050919050565b6000610ffd601f8361125d565b915061100882611527565b602082019050919050565b600061102060338361125d565b915061102b82611550565b604082019050919050565b600061104360128361125d565b915061104e8261159f565b602082019050919050565b6000611066601f8361125d565b9150611071826115c8565b602082019050919050565b611085816113e5565b82525050565b60006020820190506110a06000830184610f58565b92915050565b60006060820190506110bb6000830186610f67565b6110c86020830185610f67565b6110d5604083018461107c565b949350505050565b600060208201905081810360008301526110f78184610f94565b905092915050565b6000602082019050818103600083015261111881610fcd565b9050919050565b6000602082019050818103600083015261113881610ff0565b9050919050565b6000602082019050818103600083015261115881611013565b9050919050565b6000602082019050818103600083015261117881611036565b9050919050565b6000602082019050818103600083015261119881611059565b9050919050565b60006020820190506111b4600083018461107c565b92915050565b600060c0820190506111cf600083018961107c565b6111dc6020830188610f85565b6111e9604083018761107c565b6111f6606083018661107c565b6112036080830185610f58565b61121060a0830184610f76565b979650505050505050565b6000606082019050611230600083018661107c565b61123d602083018561107c565b61124a604083018461107c565b949350505050565b600081519050919050565b600082825260208201905092915050565b6000611279826113e5565b9150611284836113e5565b9250827fffffffffffffffffffffffffffffffffffffffffffffffffffffffffffffffff038211156112b9576112b861148f565b5b828201905092915050565b60006112cf826113e5565b91506112da836113e5565b9250826112ea576112e96114be565b5b828204905092915050565b6000611300826113e5565b915061130b836113e5565b9250817fffffffffffffffffffffffffffffffffffffffffffffffffffffffffffffffff04831182151516156113445761134361148f565b5b828202905092915050565b600061135a826113e5565b9150611365836113e5565b9250828210156113785761137761148f565b5b828203905092915050565b600061138e826113c5565b9050919050565b60006113a0826113c5565b9050919050565b60008115159050919050565b60006113be82611383565b9050919050565b600073ffffffffffffffffffffffffffffffffffffffff82169050919050565b6000819050919050565b60006113fa82611401565b9050919050565b600061140c826113c5565b9050919050565b60005b83811015611431578082015181840152602081019050611416565b83811115611440576000848401525b50505050565b6000611451826113e5565b91507fffffffffffffffffffffffffffffffffffffffffffffffffffffffffffffffff8214156114845761148361148f565b5b600182019050919050565b7f4e487b7100000000000000000000000000000000000000000000000000000000600052601160045260246000fd5b7f4e487b7100000000000000000000000000000000000000000000000000000000600052601260045260246000fd5b6000601f19601f8301169050919050565b7f6974656d20616c726561647920736f6c64000000000000000000000000000000600082015250565b7f5072696365206d7573742062652067726561746572207468616e207a65726f00600082015250565b7f6e6f7420656e6f75676820657468657220746f20636f766572206974656d207060008201527f7269636520616e64206d61726b65742066656500000000000000000000000000602082015250565b7f6974656d20646f65736e27742065786973740000000000000000000000000000600082015250565b7f5265656e7472616e637947756172643a207265656e7472616e742063616c6c00600082015250565b6115fa816113b3565b811461160557600080fd5b50565b611611816113e5565b811461161c57600080fd5b5056fea26469706673582212201f6b458e7f54498f33aea37d09fb5433de523cbc44f33c1b1f1cf10db5ee025764736f6c63430008040033",
  "linkReferences": {},
  "deployedLinkReferences": {}
}